:1004000062EF02F0FF00FF004082FACF12F0FBCF54
:1004100013F025EF04F0FF004080D8CF01F0E8CFC3
:1004200002F0E0CF03F0FACF04F0FBCF05F0E9CF04
:1004300006F0EACF07F0E1CF08F0E2CF09F0D9CF1C
:100440000AF0DACF0BF0F3CF0CF0F4CF0DF0F6CFCB
:100450000EF0F7CF0FF0F8CF10F0F5CF11F09DB8F8
:100460009EA802D009EC05F09DBA9EAA02D020EC0D
:1004700005F0F2BAF2A402D0A4EC05F011C0F5FF29
:1004800010C0F8FF0FC0F7FF0EC0F6FF0DC0F4FF5D
:100490000CC0F3FF0BC0DAFF0AC0D9FF09C0E2FFAE
:1004A00008C0E1FF07C0EAFF06C0E9FF05C0FBFF87
:1004B00004C0FAFF03C0E0FF02C0E8FF01C0D8FF9C
:1004C000409010004AEF05F0FF00FF00FF00FF0022
:1005000000010000000A00000064000000E8030091
:100510000010270000A086010040420F008096983E
:100520000000E1F50500CA9A3B5365636F6E6428CD
:1005300073293A20256C640A00008B0E0001936F2A
:10054000000E0001946FE4D0250E00019A19D8B472
:1005500005D000019A51CFEC05F0DAD0000E000171
:10056000956F02D00001958989C0F6FF8AC0F7FF18
:100570000001894B8A2B0800F5CF9AF000019A51AF
:10058000000AD8B41200640AD8B407D00D0AD8B44F
:1005900004D0050AD8B4E6D7BBD0000195A90ED087
:1005A00093C0D9FF94C0DAFFDECF96F0DECF97F08C
:1005B000DECF98F0DECF99F0040E0FD093C0D9FFB4
:1005C00094C0DAFFDECF96F0DDCF97F00001000E89
:1005D00097BFFF0E986F996F020E00019327000ED0
:1005E0009423000199AF0CD0030E00019513000174
:1005F000991F981F971F966D000E97239823992394
:10060000010E00019A6F0A0E00019A19D8B41ED08B
:1006100000019A51040D010EF324F66E050EF4202C
:10062000F76E0900F5500001965D0900F5500001D4
:1006300097590900F550000198590900F55000013B
:100640009959D8A003D000019A2BDDD795C08FF01F
:10065000030E00018F17D8B403D02D0ECFEC05F098
:1006600000019A510001916F926B91BF920745D0A2
:1006700091C08FF092C090F00001D8908F379037E2
:100680000001D8908F379037010E00018F25F66E4C
:10069000050E9021F76E0900F5CF24F00900F5CF83
:1006A00025F00900F5CF26F00A00F5CF27F096C017
:1006B00020F097C021F098C022F099C023F0E4EC1C
:1006C00003F020C080F021C081F022C082F023C05E
:1006D00083F00A0E0001846F000E856F000E866F96
:1006E000000E876F97EC03F000018051300F00017E
:1006F0009A6F00019A51CFEC05F000019107D8A044
:10070000920700019129B4E100019229D8A4B0D741
:1007100089C0F6FF8AC0F7FF0001894B8A2B0800C9
:10072000F5CF9AF000019A51D8B412000DD700010C
:100730008451000185110001861100018711D8B490
:100740003AD0010E0001886F08D00001D89084379C
:100750008537863787370001882B000187AFF5D7AB
:10076000000184510001805D000185510001815923
:10077000000186510001825900018751000183590F
:10078000D8A010D0000184510001805F0001855184
:100790000001815B000186510001825B00018751ED
:1007A0000001835B0001D89087338633853384331F
:1007B0000001882FD5D780C080F081C081F082C031
:1007C00082F083C083F01200000E286E000E296EA6
:1007D000000E2A6E000E2B6E2450251026102710B6
:1007E000D8B42AD0010E2C6E06D0D89024362536E7
:1007F000263627362C2A27AEF8D7D8902836293621
:100800002A362B362450205C255021582650225859
:1008100027502358D8A009D02450205E2550215AB3
:100820002650225A2750235A2880D8902732263221
:10083000253224322C2EE1D728C020F029C021F007
:100840002AC022F02BC023F01200E9CF14F0EACF27
:1008500015F0E1CF16F0E2CF17F0D9CF18F0DACFCC
:1008600019F0F3CF1AF0F4CF1BF0F6CF1CF0F7CF4E
:100870001DF0F8CF1EF0F5CF1FF0A0B2A1A202D05C
:10088000ACEC05F01FC0F5FF1EC0F8FF1DC0F7FF60
:100890001CC0F6FF1BC0F4FF1AC0F3FF19C0DAFF3B
:1008A00018C0D9FF17C0E2FF16C0E1FF15C0EAFF6C
:1008B00014C0E9FF13C0FBFF12C0FAFF4092110001
:1008C00070EC05F0F28EF28C92EC04F03A1E3AC015
:1008D00021F0130ED3EC04F08BBA02D08B8A01D036
:1008E0008B9A290E0001896F050E00018A6F31C0B5
:1008F0008BF032C08CF033C08DF034C08EF09DECA4
:1009000002F0640E206E000E216E000E226E000EAC
:10091000236E5DEC05F0010E3126000E32223322EB
:100920003422D4D7200E216E050ED3EC04F0000E35
:10093000216E000ED3EC04F0000E216E010ED3ECFC
:1009400004F00A0E206E000E216E000E226E000EC4
:10095000236E5DEC05F0000E216E120ED3EC04F058
:10096000000E216E130ED3EC04F01200206E3F50E7
:10097000D8B4FDD79DB803D020C0ADFF12D09D984C
:100980003850010D700EF324D96E000EF420DA6E8B
:1009900020C0DFFF382A0F0E386402D0000E386EF8
:1009A0003F069D881200226E000E246E000E236EFC
:1009B000D8EC05F0400E246E24509CEC05F0236E1C
:1009C00022C024F024509CEC05F0236E21C024F0BA
:1009D00024509CEC05F0236EDAEC05F012009D9A91
:1009E0009D984A0EB86E800EAB6E260EAC6EA00EB1
:1009F000AF6E010EB06E000E386E000E396E100E26
:100A00003F6E000E366E000E376E000E356E9D8AFC
:100A10001200100E3F6012D03950010D700EF324F9
:100A2000D96E000EF420DA6EDF50AD6E392A0F0E4B
:100A3000396402D0000E396E3F2A12009D981200D0
:100A4000ABA202D0AB98AB883650010D600EF324F8
:100A5000D96E000EF420DA6EAECFDFFF362A0F0E0D
:100A6000366402D0000E366E352A1200010E896EF1
:100A7000360E926E000E776E000E8A6EB00E936E7A
:100A8000000E786E000E8B6E5F0E946E7E68000E08
:100A90007F6E120000EE60F0200EEE6AE806FDE1C7
:100AA00000EE2DF00E0EEE6AE806FDE14090409259
:100AB000000EF86E000160EF04F0000E2D6E000EC7
:100AC0002E6E000E2F6E000E306E20502D5C2150C9
:100AD0002E5822502F5823503058D8B01200F5D736
:100AE000BBEC05F036EC05F0C9EC05F0EFEC04F0DA
:100AF000B4EC05F07FEC05F08EEC05F012009F0ED3
:100B0000D56E630ED76EC00ED66E630E3C6EC00EF1
:100B10003B6EF294F28AD6EC05F01200340EB16E00
:100B2000B368E70EB26EB2CF3DF0B3CF3EF0A19204
:100B3000A082D4EC05F01200206EC69E20C0C9FF32
:100B4000C7A0FED7C9501200F2943C50D76E3BC0EC
:100B5000D6FFC2EC05F01200A1923E50B36E3DC02C
:100B6000B2FFDCEC05F01200400EC76E200EC66E20
:100B7000000EC86E1200610ED36E040ED26E000E0F
:100B80009B6E1200010E2D26000E2E222F223022E7
:100B90001200D08EA2829F989F9AF1941200216E2B
:100BA0002150B6EC04F01200B1801200D58E120074
:100BB00089901200898012001200FF00FF00FF00E0
:020000040030CA
:0E000000FFE21F1EFF8881FF03C003E00340E4
:00000001FF
